{
  "contractName": "TokenFarm",
  "abi": [
    {
      "inputs": [
        {
          "internalType": "contract DappToken",
          "name": "_dappToken",
          "type": "address"
        },
        {
          "internalType": "contract DaiToken",
          "name": "_daiToken",
          "type": "address"
        }
      ],
      "payable": false,
      "stateMutability": "nonpayable",
      "type": "constructor"
    },
    {
      "constant": true,
      "inputs": [],
      "name": "daiToken",
      "outputs": [
        {
          "internalType": "contract DaiToken",
          "name": "",
          "type": "address"
        }
      ],
      "payable": false,
      "stateMutability": "view",
      "type": "function"
    },
    {
      "constant": true,
      "inputs": [],
      "name": "dappToken",
      "outputs": [
        {
          "internalType": "contract DappToken",
          "name": "",
          "type": "address"
        }
      ],
      "payable": false,
      "stateMutability": "view",
      "type": "function"
    },
    {
      "constant": true,
      "inputs": [
        {
          "internalType": "address",
          "name": "",
          "type": "address"
        }
      ],
      "name": "hasStacked",
      "outputs": [
        {
          "internalType": "bool",
          "name": "",
          "type": "bool"
        }
      ],
      "payable": false,
      "stateMutability": "view",
      "type": "function"
    },
    {
      "constant": true,
      "inputs": [
        {
          "internalType": "address",
          "name": "",
          "type": "address"
        }
      ],
      "name": "isStacking",
      "outputs": [
        {
          "internalType": "bool",
          "name": "",
          "type": "bool"
        }
      ],
      "payable": false,
      "stateMutability": "view",
      "type": "function"
    },
    {
      "constant": true,
      "inputs": [],
      "name": "name",
      "outputs": [
        {
          "internalType": "string",
          "name": "",
          "type": "string"
        }
      ],
      "payable": false,
      "stateMutability": "view",
      "type": "function"
    },
    {
      "constant": true,
      "inputs": [],
      "name": "owner",
      "outputs": [
        {
          "internalType": "address",
          "name": "",
          "type": "address"
        }
      ],
      "payable": false,
      "stateMutability": "view",
      "type": "function"
    },
    {
      "constant": true,
      "inputs": [
        {
          "internalType": "uint256",
          "name": "",
          "type": "uint256"
        }
      ],
      "name": "stackers",
      "outputs": [
        {
          "internalType": "address",
          "name": "",
          "type": "address"
        }
      ],
      "payable": false,
      "stateMutability": "view",
      "type": "function"
    },
    {
      "constant": true,
      "inputs": [
        {
          "internalType": "address",
          "name": "",
          "type": "address"
        }
      ],
      "name": "stackingBalance",
      "outputs": [
        {
          "internalType": "uint256",
          "name": "",
          "type": "uint256"
        }
      ],
      "payable": false,
      "stateMutability": "view",
      "type": "function"
    },
    {
      "constant": false,
      "inputs": [
        {
          "internalType": "uint256",
          "name": "_amount",
          "type": "uint256"
        }
      ],
      "name": "stakeTokens",
      "outputs": [],
      "payable": false,
      "stateMutability": "nonpayable",
      "type": "function"
    },
    {
      "constant": false,
      "inputs": [],
      "name": "issueTokens",
      "outputs": [],
      "payable": false,
      "stateMutability": "nonpayable",
      "type": "function"
    }
  ],
  "bytecode": "0x60806040526040518060400160405280600f81526020017f4461707020546f6b656e204661726d00000000000000000000000000000000008152506000908051906020019061004f929190610164565b5034801561005c57600080fd5b50604051610d81380380610d818339818101604052604081101561007f57600080fd5b81019080805190602001909291908051906020019092919050505081600160006101000a81548173ffffffffffffffffffffffffffffffffffffffff021916908373ffffffffffffffffffffffffffffffffffffffff16021790555080600260006101000a81548173ffffffffffffffffffffffffffffffffffffffff021916908373ffffffffffffffffffffffffffffffffffffffff16021790555033600360006101000a81548173ffffffffffffffffffffffffffffffffffffffff021916908373ffffffffffffffffffffffffffffffffffffffff1602179055505050610209565b828054600181600116156101000203166002900490600052602060002090601f016020900481019282601f106101a557805160ff19168380011785556101d3565b828001600101855582156101d3579182015b828111156101d25782518255916020019190600101906101b7565b5b5090506101e091906101e4565b5090565b61020691905b808211156102025760008160009055506001016101ea565b5090565b90565b610b69806102186000396000f3fe608060405234801561001057600080fd5b506004361061009e5760003560e01c80637547c7a3116100665780637547c7a31461023257806378197289146102605780638da5cb5b146102b8578063be22f54614610302578063fb453e231461034c5761009e565b806306fdde03146100a357806307e9417a1461012657806332ac90cf146101825780635eb186f8146101de57806360ab585214610228575b600080fd5b6100ab6103ba565b6040518080602001828103825283818151815260200191508051906020019080838360005b838110156100eb5780820151818401526020810190506100d0565b50505050905090810190601f1680156101185780820380516001836020036101000a031916815260200191505b509250505060405180910390f35b6101686004803603602081101561013c57600080fd5b81019080803573ffffffffffffffffffffffffffffffffffffffff169060200190929190505050610458565b604051808215151515815260200191505060405180910390f35b6101c46004803603602081101561019857600080fd5b81019080803573ffffffffffffffffffffffffffffffffffffffff169060200190929190505050610478565b604051808215151515815260200191505060405180910390f35b6101e6610498565b604051808273ffffffffffffffffffffffffffffffffffffffff1673ffffffffffffffffffffffffffffffffffffffff16815260200191505060405180910390f35b6102306104be565b005b61025e6004803603602081101561024857600080fd5b8101908080359060200190929190505050610715565b005b6102a26004803603602081101561027657600080fd5b81019080803573ffffffffffffffffffffffffffffffffffffffff169060200190929190505050610a94565b6040518082815260200191505060405180910390f35b6102c0610aac565b604051808273ffffffffffffffffffffffffffffffffffffffff1673ffffffffffffffffffffffffffffffffffffffff16815260200191505060405180910390f35b61030a610ad2565b604051808273ffffffffffffffffffffffffffffffffffffffff1673ffffffffffffffffffffffffffffffffffffffff16815260200191505060405180910390f35b6103786004803603602081101561036257600080fd5b8101908080359060200190929190505050610af8565b604051808273ffffffffffffffffffffffffffffffffffffffff1673ffffffffffffffffffffffffffffffffffffffff16815260200191505060405180910390f35b60008054600181600116156101000203166002900480601f0160208091040260200160405190810160405280929190818152602001828054600181600116156101000203166002900480156104505780601f1061042557610100808354040283529160200191610450565b820191906000526020600020905b81548152906001019060200180831161043357829003601f168201915b505050505081565b60076020528060005260406000206000915054906101000a900460ff1681565b60066020528060005260406000206000915054906101000a900460ff1681565b600160009054906101000a900473ffffffffffffffffffffffffffffffffffffffff1681565b600360009054906101000a900473ffffffffffffffffffffffffffffffffffffffff1673ffffffffffffffffffffffffffffffffffffffff163373ffffffffffffffffffffffffffffffffffffffff1614610581576040517f08c379a00000000000000000000000000000000000000000000000000000000081526004018080602001828103825260188152602001807f63616c6c6572206d75737420626520746865206f776e6572000000000000000081525060200191505060405180910390fd5b60008090505b600480549050811015610712576000600482815481106105a357fe5b9060005260206000200160009054906101000a900473ffffffffffffffffffffffffffffffffffffffff1690506000600560008373ffffffffffffffffffffffffffffffffffffffff1673ffffffffffffffffffffffffffffffffffffffff168152602001908152602001600020549050600081111561070357600160009054906101000a900473ffffffffffffffffffffffffffffffffffffffff1673ffffffffffffffffffffffffffffffffffffffff1663a9059cbb83836040518363ffffffff1660e01b8152600401808373ffffffffffffffffffffffffffffffffffffffff1673ffffffffffffffffffffffffffffffffffffffff16815260200182815260200192505050602060405180830381600087803b1580156106c657600080fd5b505af11580156106da573d6000803e3d6000fd5b505050506040513d60208110156106f057600080fd5b8101908080519060200190929190505050505b50508080600101915050610587565b50565b6000811161078b576040517f08c379a00000000000000000000000000000000000000000000000000000000081526004018080602001828103825260128152602001807f616d6f756e742063616e6e6f742062652030000000000000000000000000000081525060200191505060405180910390fd5b600260009054906101000a900473ffffffffffffffffffffffffffffffffffffffff1673ffffffffffffffffffffffffffffffffffffffff166323b872dd3330846040518463ffffffff1660e01b8152600401808473ffffffffffffffffffffffffffffffffffffffff1673ffffffffffffffffffffffffffffffffffffffff1681526020018373ffffffffffffffffffffffffffffffffffffffff1673ffffffffffffffffffffffffffffffffffffffff1681526020018281526020019350505050602060405180830381600087803b15801561086857600080fd5b505af115801561087c573d6000803e3d6000fd5b505050506040513d602081101561089257600080fd5b81019080805190602001909291905050505080600560003373ffffffffffffffffffffffffffffffffffffffff1673ffffffffffffffffffffffffffffffffffffffff1681526020019081526020016000205401600560003373ffffffffffffffffffffffffffffffffffffffff1673ffffffffffffffffffffffffffffffffffffffff16815260200190815260200160002081905550600660003373ffffffffffffffffffffffffffffffffffffffff1673ffffffffffffffffffffffffffffffffffffffff16815260200190815260200160002060009054906101000a900460ff166109e15760043390806001815401808255809150509060018203906000526020600020016000909192909190916101000a81548173ffffffffffffffffffffffffffffffffffffffff021916908373ffffffffffffffffffffffffffffffffffffffff160217905550505b6001600760003373ffffffffffffffffffffffffffffffffffffffff1673ffffffffffffffffffffffffffffffffffffffff16815260200190815260200160002060006101000a81548160ff0219169083151502179055506001600660003373ffffffffffffffffffffffffffffffffffffffff1673ffffffffffffffffffffffffffffffffffffffff16815260200190815260200160002060006101000a81548160ff02191690831515021790555050565b60056020528060005260406000206000915090505481565b600360009054906101000a900473ffffffffffffffffffffffffffffffffffffffff1681565b600260009054906101000a900473ffffffffffffffffffffffffffffffffffffffff1681565b60048181548110610b0557fe5b906000526020600020016000915054906101000a900473ffffffffffffffffffffffffffffffffffffffff168156fea265627a7a72315820bc1414a255796434108fee52f09fdfded5172acfea161a57cbb39ad1cbde7d4864736f6c63430005100032",
  "source": "pragma solidity >0.5.0;\n\n// import \"./DappToken.sol\";\n// import \"./DaiToken.sol\";\n\n// contract TokenFarm {\n//     string public name = \"Dapp Token Farm\";\n    // address public owner;\n//     DappToken public dappToken;\n//     DaiToken public daiToken;\n\n//     address[] public stakers;\n//     mapping(address => uint) public stakingBalance;\n//     mapping(address => bool) public hasStaked;\n//     mapping(address => bool) public isStaking;\n\n//     constructor(DappToken _dappToken, DaiToken _daiToken) public {\n//         dappToken = _dappToken;\n//         daiToken = _daiToken;\n//         owner = msg.sender;\n//     }\n\n//     function stakeTokens(uint _amount) public {\n//         // Require amount greater than 0\n//         require(_amount > 0, \"amount cannot be 0\");\n\n//         // Trasnfer Mock Dai tokens to this contract for staking\n//         daiToken.transferFrom(msg.sender, address(this), _amount);\n\n//         // Update staking balance\n//         stakingBalance[msg.sender] = stakingBalance[msg.sender] + _amount;\n\n//         // Add user to stakers array *only* if they haven't staked already\n//         if(!hasStaked[msg.sender]) {\n//             stakers.push(msg.sender);\n//         }\n\n//         // Update staking status\n//         isStaking[msg.sender] = true;\n//         hasStaked[msg.sender] = true;\n//     }\n\n//     // Unstaking Tokens (Withdraw)\n//     function unstakeTokens() public {\n//         // Fetch staking balance\n//         uint balance = stakingBalance[msg.sender];\n\n//         // Require amount greater than 0\n//         require(balance > 0, \"staking balance cannot be 0\");\n\n//         // Transfer Mock Dai tokens to this contract for staking\n//         daiToken.transfer(msg.sender, balance);\n\n//         // Reset staking balance\n//         stakingBalance[msg.sender] = 0;\n\n//         // Update staking status\n//         isStaking[msg.sender] = false;\n//     }\n\n    // // Issuing Tokens\n    // function issueTokens() public {\n    //     // Only owner can call this function\n    //     require(msg.sender == owner, \"caller must be the owner\");\n\n    //     // Issue tokens to all stakers\n    //     for (uint i=0; i<stakers.length; i++) {\n    //         address recipient = stakers[i];\n    //         uint balance = stakingBalance[recipient];\n    //         if(balance > 0) {\n    //             dappToken.transfer(recipient, balance);\n    //         }\n    //     }\n    // }\n// }\n\n\nimport \"./DappToken.sol\";\nimport \"./DaiToken.sol\";\n\ncontract TokenFarm{\n    string public name = \"Dapp Token Farm\";\n    DappToken public dappToken;\n    DaiToken public daiToken;\n    address public owner;\n    constructor(DappToken _dappToken, DaiToken _daiToken) public{\n        dappToken = _dappToken;\n        daiToken = _daiToken;\n        owner = msg.sender;\n    }\n\n    address[] public stackers;\n    mapping(address => uint) public stackingBalance;\n    mapping(address => bool) public hasStacked;\n    mapping(address => bool) public isStacking;\n\n    // Stake tokens\n    function stakeTokens(uint _amount) public{\n\n        // require amount should be greater than 0\n        require(_amount >0, \"amount cannot be 0\");\n\n        // transfer mock dai token to this contract for staking\n        daiToken.transferFrom(msg.sender,address(this),_amount);\n\n        // update stacking balance\n        stackingBalance[msg.sender] = stackingBalance[msg.sender] + _amount;\n\n        // add user to stackers array only if they haven't \n        // stacked already\n        if(!hasStacked[msg.sender]){\n            stackers.push(msg.sender);\n        }\n\n        // update stacking status\n        isStacking[msg.sender]= true;\n        hasStacked[msg.sender]= true;\n        \n    }\n\n    // Issuing Tokens\n    function issueTokens() public {\n        // Only owner can call this function\n        require(msg.sender == owner, \"caller must be the owner\");\n\n        // Issue tokens to all stakers\n        for (uint i=0; i<stackers.length; i++) {\n            address recipient = stackers[i];\n            uint balance = stackingBalance[recipient];\n            if(balance > 0) {\n                dappToken.transfer(recipient, balance);\n            }\n        }\n    }\n \n}",
  "sourcePath": "D:/Preetam Sarkar 4th and final year project/Ethereum-DeFi-App/src/contracts/TokenFarm.sol",
  "compiler": {
    "name": "solc",
    "version": "0.5.16+commit.9c3226ce.Emscripten.clang"
  },
  "schemaVersion": "3.2.3",
  "updatedAt": "2021-11-28T15:15:47.962Z",
  "devdoc": {
    "methods": {}
  },
  "userdoc": {
    "methods": {}
  }
}