{
  "contractName": "TokenFarm",
  "abi": [
    {
      "inputs": [
        {
          "internalType": "contract DappToken",
          "name": "_dappToken",
          "type": "address"
        },
        {
          "internalType": "contract DaiToken",
          "name": "_daiToken",
          "type": "address"
        }
      ],
      "payable": false,
      "stateMutability": "nonpayable",
      "type": "constructor"
    },
    {
      "constant": true,
      "inputs": [],
      "name": "daiToken",
      "outputs": [
        {
          "internalType": "contract DaiToken",
          "name": "",
          "type": "address"
        }
      ],
      "payable": false,
      "stateMutability": "view",
      "type": "function"
    },
    {
      "constant": true,
      "inputs": [],
      "name": "dappToken",
      "outputs": [
        {
          "internalType": "contract DappToken",
          "name": "",
          "type": "address"
        }
      ],
      "payable": false,
      "stateMutability": "view",
      "type": "function"
    },
    {
      "constant": true,
      "inputs": [],
      "name": "name",
      "outputs": [
        {
          "internalType": "string",
          "name": "",
          "type": "string"
        }
      ],
      "payable": false,
      "stateMutability": "view",
      "type": "function"
    }
  ],
  "bytecode": "0x60806040526040518060400160405280600f81526020017f4461707020546f6b656e204661726d00000000000000000000000000000000008152506000908051906020019061004f929190610123565b5034801561005c57600080fd5b506040516104533803806104538339818101604052604081101561007f57600080fd5b81019080805190602001909291908051906020019092919050505081600160006101000a81548173ffffffffffffffffffffffffffffffffffffffff021916908373ffffffffffffffffffffffffffffffffffffffff16021790555080600260006101000a81548173ffffffffffffffffffffffffffffffffffffffff021916908373ffffffffffffffffffffffffffffffffffffffff16021790555050506101c8565b828054600181600116156101000203166002900490600052602060002090601f016020900481019282601f1061016457805160ff1916838001178555610192565b82800160010185558215610192579182015b82811115610191578251825591602001919060010190610176565b5b50905061019f91906101a3565b5090565b6101c591905b808211156101c15760008160009055506001016101a9565b5090565b90565b61027c806101d76000396000f3fe608060405234801561001057600080fd5b50600436106100415760003560e01c806306fdde03146100465780635eb186f8146100c9578063be22f54614610113575b600080fd5b61004e61015d565b6040518080602001828103825283818151815260200191508051906020019080838360005b8381101561008e578082015181840152602081019050610073565b50505050905090810190601f1680156100bb5780820380516001836020036101000a031916815260200191505b509250505060405180910390f35b6100d16101fb565b604051808273ffffffffffffffffffffffffffffffffffffffff1673ffffffffffffffffffffffffffffffffffffffff16815260200191505060405180910390f35b61011b610221565b604051808273ffffffffffffffffffffffffffffffffffffffff1673ffffffffffffffffffffffffffffffffffffffff16815260200191505060405180910390f35b60008054600181600116156101000203166002900480601f0160208091040260200160405190810160405280929190818152602001828054600181600116156101000203166002900480156101f35780601f106101c8576101008083540402835291602001916101f3565b820191906000526020600020905b8154815290600101906020018083116101d657829003601f168201915b505050505081565b600160009054906101000a900473ffffffffffffffffffffffffffffffffffffffff1681565b600260009054906101000a900473ffffffffffffffffffffffffffffffffffffffff168156fea265627a7a72315820729c51f1a17dfd156362a8fa7921db4c28fdf0ecf1a6f5eadfd58f3942df496964736f6c63430005100032",
  "source": "pragma solidity >0.5.0;\n\n// import \"./DappToken.sol\";\n// import \"./DaiToken.sol\";\n\n// contract TokenFarm {\n//     string public name = \"Dapp Token Farm\";\n//     address public owner;\n//     DappToken public dappToken;\n//     DaiToken public daiToken;\n\n//     address[] public stakers;\n//     mapping(address => uint) public stakingBalance;\n//     mapping(address => bool) public hasStaked;\n//     mapping(address => bool) public isStaking;\n\n//     constructor(DappToken _dappToken, DaiToken _daiToken) public {\n//         dappToken = _dappToken;\n//         daiToken = _daiToken;\n//         owner = msg.sender;\n//     }\n\n//     function stakeTokens(uint _amount) public {\n//         // Require amount greater than 0\n//         require(_amount > 0, \"amount cannot be 0\");\n\n//         // Trasnfer Mock Dai tokens to this contract for staking\n//         daiToken.transferFrom(msg.sender, address(this), _amount);\n\n//         // Update staking balance\n//         stakingBalance[msg.sender] = stakingBalance[msg.sender] + _amount;\n\n//         // Add user to stakers array *only* if they haven't staked already\n//         if(!hasStaked[msg.sender]) {\n//             stakers.push(msg.sender);\n//         }\n\n//         // Update staking status\n//         isStaking[msg.sender] = true;\n//         hasStaked[msg.sender] = true;\n//     }\n\n//     // Unstaking Tokens (Withdraw)\n//     function unstakeTokens() public {\n//         // Fetch staking balance\n//         uint balance = stakingBalance[msg.sender];\n\n//         // Require amount greater than 0\n//         require(balance > 0, \"staking balance cannot be 0\");\n\n//         // Transfer Mock Dai tokens to this contract for staking\n//         daiToken.transfer(msg.sender, balance);\n\n//         // Reset staking balance\n//         stakingBalance[msg.sender] = 0;\n\n//         // Update staking status\n//         isStaking[msg.sender] = false;\n//     }\n\n//     // Issuing Tokens\n//     function issueTokens() public {\n//         // Only owner can call this function\n//         require(msg.sender == owner, \"caller must be the owner\");\n\n//         // Issue tokens to all stakers\n//         for (uint i=0; i<stakers.length; i++) {\n//             address recipient = stakers[i];\n//             uint balance = stakingBalance[recipient];\n//             if(balance > 0) {\n//                 dappToken.transfer(recipient, balance);\n//             }\n//         }\n//     }\n// }\n\n\nimport \"./DappToken.sol\";\nimport \"./DaiToken.sol\";\n\ncontract TokenFarm{\n    string public name = \"Dapp Token Farm\";\n    DappToken public dappToken;\n    DaiToken public daiToken;\n    constructor(DappToken _dappToken, DaiToken _daiToken) public{\n        dappToken = _dappToken;\n        daiToken = _daiToken;\n    }\n \n}",
  "sourcePath": "D:/Preetam Sarkar 4th and final year project/Ethereum-DeFi-App/src/contracts/TokenFarm.sol",
  "compiler": {
    "name": "solc",
    "version": "0.5.16+commit.9c3226ce.Emscripten.clang"
  },
  "schemaVersion": "3.2.3",
  "updatedAt": "2021-11-26T16:25:24.080Z",
  "networkType": "ethereum",
  "devdoc": {
    "methods": {}
  },
  "userdoc": {
    "methods": {}
  }
}